:020000040800F2
:10000000B00B002015020008FD2000085918000858
:10001000D920000817030008352700080000000059
:100020000000000000000000000000006122000845
:1000300033030008000000000B21000863220008C1
:100040002F0200082F0200082F0200082F020008CC
:100050002F0200082F0200082F0200082F020008BC
:100060002F0200082F0200082F0200082F020008AC
:100070002F0200082F0200082F0200082F0200089C
:100080002F0200082F0200082F0200082F0200088C
:100090002F0200082F0200082F0200082F0200087C
:1000A0002F0200082F0200082F0200082F0200086C
:1000B0002F0200082F020008C92200082F020008A2
:1000C0002F0200082F0200082F0200082F0200084C
:1000D0002F0200082F0200082F0200082F0200083C
:1000E0002F0200082F0200082F0200082F0200082C
:1000F0002F0200082F0200082F0200082F0200081C
:100100002F0200082F0200082F0200082F0200080B
:100110002F0200082F0200082F0200082F020008FB
:100120002F0200082F0200082F0200082F020008EB
:1001300000F002F800F05EF80AA090E8000C82449B
:100140008344AAF10107DA4501D100F053F8AFF278
:10015000090EBAE80F0013F0010F18BFFB1A43F0A5
:1001600001031847E82F00000830000010F8013B99
:100170000A4413F0030408BF10F8014B1D1108BF17
:1001800010F8015B641E05D010F8016B641E01F8C5
:10019000016BF9D1002D15D010F8014B03F00C03C1
:1001A0000C2BA1EB04040ABF10F8013BA4EB831451
:1001B000A4EB032405F1010314F8016B5B1E01F8A5
:1001C000016BF9D5914238BF10F8013BD1D370478C
:1001D0000023002400250026103A28BF78C1FBD850
:1001E000520728BF30C148BF0B6070471FB51FBD05
:1001F00010B510BD00F058F81146FFF7F7FF02F0F8
:10020000D1FA00F076F803B4FFF7F2FF03BC00F078
:100210007BF800000948804709480047FEE7FEE7F1
:10022000FEE7FEE7FEE7FEE7FEE7FEE7FEE7FEE7A6
:1002300004480549054A064B70470000C5220008DE
:1002400031010008B0050020B00B0020B0070020ED
:10025000B00700204FF0000200B5134694469646C2
:10026000203922BFA0E80C50A0E80C50B1F12001C9
:10027000BFF4F7AF090728BFA0E80C5048BF0CC077
:100280005DF804EB890028BF40F8042B08BF7047D5
:1002900048BF20F8022B11F0804F18BF00F8012B47
:1002A0007047704770477047754600F029F8AE46B2
:1002B00005006946534620F00700854618B020B572
:1002C000FFF7B6FFBDE820404FF000064FF00007F3
:1002D0004FF000084FF0000B21F00701AC46ACE8EE
:1002E000C009ACE8C009ACE8C009ACE8C0098D465B
:1002F00070470446AFF300802046FFF784FF0000FC
:10030000004870475005002001491820ABBEFEE7A9
:10031000260002007047FEE710B50446102040EAB0
:10032000141001F06BFD04F00F00BDE8104001F067
:1003300065BD704772B6FEE710B54FF4806108489E
:1003400000F01EF928B102F081FABDE8104002F079
:10035000D7BA02F063FABDE8104002F0B9BA000063
:100360000014014070B5044600F014F90546601C05
:1003700002D004480078044400F00CF9401BA0426D
:10038000FAD370BD180400202DE9F84FDFF8C891AA
:10039000002409F1040A0AF1040B23460F270BF18C
:1003A000040ED1E00125A54006EA0502AA4276D155
:1003B000DFF8A8C14E68A6EB0C0866452BD00DDC13
:1003C000032E34D005DC36B3012E19D0022E2FD1E6
:1003D0001BE0112E16D0122E2AD119E0B8F5881F75
:1003E00019D006DCB8F5803F15D0B8F5801F1FD1B5
:1003F00011E0B8F5001F0ED0B8F5041F18D10AE0BF
:10040000CB6815E0CB681B1D12E0CB6808330FE00A
:10041000CB680C330CE08B682BB1012B4FF0080339
:1004200003D0456104E0042302E0056100E00023FD
:10043000FF2A01D8064601E000F104064FEA8405D0
:1004400001D9A5F12005D6F8008007FA05FC28EAB5
:100450000C0803FA05F548EA0508C6F800804D685F
:10046000ED0070D53E4DAE6946F00106AE61AD6956
:1004700024F0030605F0010500953A4D06EB050C46
:10048000DCF80850A607360F07FA06F825EA080533
:10049000DFF8D480404503D14FF0000825E052E05A
:1004A000DFF8C880404502D14FF001081DE0DFF8B9
:1004B000C080404502D14FF0020816E0DFF8B4805A
:1004C000404502D14FF003080FE0DFF8AC80404513
:1004D00002D14FF0040808E0DFF8A080404502D1C7
:1004E0004FF0050801E04FF0060808FA06F848EA60
:1004F0000508CCF808804D68D9F80060ED034D463A
:1005000001D5164300E096432E604D68DAF800608E
:10051000AD03554601D5164300E096432E604D6865
:10052000DBF80060ED025D4601D5164300E096431E
:100530002E604D68DEF80060AD02754601D51643A9
:1005400000E096432E60641C0A681646E2407FF481
:1005500029AFBDE8F88F0000000401400000111031
:10056000001002400000014000080140000C014062
:10057000001001400014014000180140001C01401F
:100580008068084000D0012070470AB101617047BF
:100590000904FBE701488068704700001804002048
:1005A00070B5040025D094F83D00002520B984F8EA
:1005B0003C50204600F070FA242084F83D0020686A
:1005C000016821F0010101602068016841F40041E7
:1005D00001602068016821F40041016000F0BAFB6D
:1005E0004D4A6168914201D84C4900E04C4988422B
:1005F00001D2012070BD4B492368B0FBF1F15E6868
:1006000026F03F060E435E606368934206D94FF4BE
:10061000967359434FF47A73B1FBF3F12368491C85
:100620001E6A26F03F06314319626168914210D874
:100630004900401EB0FBF1F2521CC2F30B02042A27
:1006400001D2042022E0B0FBF1F0401CC0F30B000B
:100650001CE0A268F2B301EBC10303EB0116431ED9
:10066000B3FBF6F35B1C43F480431B0549D092B304
:1006700001EBC10202EB0111401EB0FBF1F0401C86
:10068000C0F30B0040F4804040F400402168CA6988
:100690004CF6FF739A431043C861D4E90710014335
:1006A0002068026822F0C00211430160D4E903010E
:1006B00001432068826848F2FF339A431143816006
:1006C000D4E9050108432168CA6822F0FF021043FB
:1006D000C86001E00EE016E02068016841F0010109
:1006E00001602564202084F83D00256384F83E5095
:1006F000002070BD01EB4106431EB3FBF6F35B1C0B
:10070000B3E70120C2E701EB4101401EB0FBF1F06D
:10071000401CC0F30B00B7E7A086010080841E00D8
:1007200000093D0040420F002DE9F84F0025DDF89B
:100730002890984617468A4604460095FFF72AFFF8
:10074000064694F83D0020287AD1192301228349D6
:100750002046009601F008FA0028F5D194F83C00F4
:1007600001286DD0012084F83C0020680168C90789
:1007700003D1016841F0010101602068016821F4A2
:1007800000610160222084F83D00102084F83E00C2
:1007900025646762A4F82A80608D20857048E06235
:1007A00033464A465146204601F0F4F800287DD1F0
:1007B000208DDFF8B081202768B1012814D00228ED
:1007C000206801681ED041F48061016020684169A1
:1007D00080690090B5E020684169816900910168F5
:1007E00041F400710160ACE02068016821F480618F
:1007F000016072B62068416981690091016841F425
:1008000000710AE041F40061016072B6206841693C
:1008100081690091016821F48061016062B690E015
:10082000032868D801280CD002284B464FF000025C
:100830004146204600960FD001F096F9B0BB10E07B
:100840008AE032464946204601F00DFA70BB206826
:100850000069616A08706BE001F086F930BB72B61E
:1008600034E02068016821F48061016072B620687C
:100870000069616A0870606A401C6062208D401ED9
:100880002085608D401E6085374846F2A8110068BB
:10089000B0FBF1F0C0EBC00000EB80000090401E08
:1008A000009008D020684069C04300E029E040077C
:1008B0000CD50098F3E744F8305F6773A57320699F
:1008C00040F02000206162B625731AE020680168BC
:1008D00041F40071016020680069616A0870606A13
:1008E000401C6062218D491E2185618D491E6185F4
:1008F00062B621681AE032464946204601F0B3F953
:1009000010B10120BDE8F88F20680069616A0870A5
:10091000606A401C6062218D491E2185618D491EDF
:10092000618521684A69D24352070AD40969017076
:10093000606A401C6062208D401E2085608D401ED4
:100940006085208D00287FF46BAF84F83D7084F8BB
:100950003E5084F83C50D5E70220D3E70200100057
:100960000000FFFF04000100240400202DE9F84FDF
:100970001F4690468A460446DDF82890FFF70AFE97
:10098000054694F83D0020287FD1192301224049D3
:100990002046009501F0E8F8002876D194F83C0054
:1009A000012872D0012084F83C0020680168C90742
:1009B00003D1016841F0010101602068016821F460
:1009C00000610160212084F83D00102084F83E0081
:1009D00000262664C4F824806785608D20852D4814
:1009E000E0622B464A465146204601F049F890B94C
:1009F000206841698069009036E02A4649462046D1
:100A000001F064F950B1206C042804D12068016819
:100A100041F4007101600120BDE8F88F606A21682F
:100A200000780861606A401C6062618D491E6185C2
:100A3000218D491E89B2218522685369DB435B07FA
:100A40000BD451B100781061606A401C6062608D07
:100A5000401E6085208D401E20852A46494620463E
:100A600001F05CF80028CED1208D0028C5D154F8C3
:100A70003D0B016841F400710160202004F81E095B
:100A8000E67766770020C7E7FFE70220C4E70000AB
:100A9000020010000000FFFF10B586B00021009199
:100AA0000191029103910068104988421BD1104CBA
:100AB000A06940F00800A061A069694600F0080044
:100AC00004904FF4406000901220019003200390A6
:100AD0000848FFF759FCE06940F48000E061E069F4
:100AE00000F48000049006B010BD000000580040E3
:100AF00000100240000C0140024881680278114455
:100B00008160704718040020074810B5016841F063
:100B100010010160032000F075F80F2000F006F8C6
:100B200000F024F8002010BD0020024070B50D4DEB
:100B300004464FF47A712878B1FBF0F00A4909684D
:100B4000B1FBF0F000F0ECFA48B9102C07D200220B
:100B50002146501E00F036F800206C6070BD012068
:100B600070BD000018040020240400200C4808B5C3
:100B7000816941F001018161816901F00101009108
:100B8000C16941F08051C161C06900F0805000909E
:100B90000448416821F0E06141F00071416008BD06
:100BA0000010024000000140002809DB00F01F0295
:100BB000012191404009800000F1E020C0F80011BF
:100BC00070470000F0B40E4B1B680C46C3F30223C1
:100BD000C3F10705042D00D90425191D072901D2E9
:100BE000002300E0DB1E012606FA05F1491E214024
:100BF00099409E40761E16403143F0BC01F0C2BDC4
:100C00000CED00E0064900F0070208684FF6FF030C
:100C1000184040EA0220034A104308607047000071
:100C20000CED00E00000FA052DE9F0470F46050045
:100C300061D0434E306800F00700B84209D23068F6
:100C400020F0070038433060306800F00700B842F9
:100C500051D128683B4C810712D5400703D5606805
:100C600040F4E06060602878000703D5606840F4D5
:100C7000605060606068A96820F0F0000843606020
:100C80002878C00728D06868012810D02168022879
:100C900010D0890700292EDA616821F00301014391
:100CA0006160FFF777FC804641F288390DE02168EA
:100CB0008903EFE78901EDE7FFF76CFCA0EB080182
:100CC000494502D90320BDE8F0876068696800F0F3
:100CD0000C00B0EB810FEFD1306800F00700B84294
:100CE0000BD9306820F0070038433060306800F0DE
:100CF0000700B84201D00120E5E72878400705D574
:100D00006068E96820F4E0600843606028780007C4
:100D100006D56068296920F4605040EAC10060602F
:100D200000F038F86168084AC1F30311515CC8400B
:100D30000649086006480068FFF7F8FE0020C2E791
:100D4000002002400010024033310008240400203B
:100D50001C0400200448054900684968044AC1F39E
:100D60000221515CC840704724040020001002405A
:100D7000433100080448054900684968044AC1F342
:100D8000C221515CC840704724040020001002407A
:100D90004331000812A185B00FC98DE80F0014A0DF
:100DA000144A006804905168134801F00C03042BA6
:100DB00010D0082B0ED1C1F38343C9031DF80300E3
:100DC0000AD5516804AAC1F34041515C0A4A504314
:100DD000B0FBF1F005B0704708494843FAE700005E
:100DE00002030405060708090A0B0C0D0E0F10106C
:100DF000010200000010024000127A0000093D00CC
:100E00002DE9F84F040070D02078C04DC00749D0BC
:100E10006868C0F38100012807D06868C0F38100CA
:100E2000022809D16868C00306D52868800339D52F
:100E300060680028E7D035E06068B0F5803F0BD0EF
:100E400010B1B0F5A02F11D0286820F480302860B0
:100E5000286820F4802002E0286840F48030286070
:100E6000606890B1FFF796FB06460AE0286840F4F8
:100E700080202860F0E700BFFFF78CFB801B642810
:100E800073D828688003F7D50CE0FFF783FB06468C
:100E900005E000BFFFF77EFB801B6428F0D82868C0
:100EA0008003F7D420789A4E80074FF001094FF065
:100EB000000839D5686810F00C0F07D06868C0F3D7
:100EC0008100022809D16868C00306D42868800719
:100ED00014D52069012808D110E02069B0B1C6F806
:100EE0000090FFF757FB074605E00AE1FFF752FBCA
:100EF000C01B0228C4D828688007F7D52868616914
:100F000020F0F80040EAC10028600DE0C6F800803B
:100F1000FFF740FB074604E0FFF73CFBC01B02283D
:100F200023D828688007F7D4207800072CD5794883
:100F3000A169D9B1C0F80090FFF72CFB074604E087
:100F4000FFF728FBC01B02280FD8686A8007F7D577
:100F500071484FF4FA510068B0FBF1F0009000BF07
:100F60000098411E0091FAD20EE080E0C0F80080A7
:100F7000FFF710FB074604E0FFF70CFBC01B02283D
:100F800075D8686A8007F7D42078400760D5E8698B
:100F90000027C00008D4E86940F08050E861E869A3
:100FA000012700F0805000905C480168C90513D407
:100FB0000168834641F480710160FFF7EBFA8246D5
:100FC00006E000BFFFF7E6FAA0EB0A0064284ED85F
:100FD000DBF80000C005F5D5E06801280AD008B1AB
:100FE000052813D0286A20F001002862286A20F022
:100FF000040002E0286A40F001002862E06841F243
:10100000883B98B1FFF7C6FA82460BE0286A40F0A9
:1010100004002862EEE700BFFFF7BCFAA0EB0A016C
:1010200059455AD8286A8007F6D50CE0FFF7B2FA7E
:10103000824605E0FFF7AEFAA0EB0A0159454CD80D
:10104000286A8007F6D41FB1E86920F08050E86173
:10105000E06988B36968C1F38101022944D002289C
:10106000C6F8608004D0FFF795FA044638E034E013
:10107000FFF790FA074604E0FFF78CFAC01B02283E
:101080002BD828688001F7D4206AB0F5803F05D1BD
:101090006868A16820F4003008436860D4E908015A
:1010A0000843696821F4741108436860C6F86090C9
:1010B000FFF770FA044606E025E000BFFFF76AFA82
:1010C000001B022809D828688001F7D51BE000BF63
:1010D000FFF760FA001B022802D90320BDE8F88F51
:1010E00028688001F4D40EE00128F7D06868226AED
:1010F00000F48031914204D1616A00F4701088429A
:1011000001D00120EAE70020E8E7000000100240DB
:10111000000042428004424224040020007000404B
:1011200010B5401EB0F1807F01D3012010BD4FF0FB
:10113000E02460610F21601701F024FB0020A06112
:1011400007202061002010BD7047704770B590F8EF
:101150003C20012A2CD0012480F83C40022280F857
:101160003D2003685A689D6822F070060A68324381
:101170005A60104B02689A420ED00F4B9A420BD025
:10118000B2F1804F08D00D4B9A4205D00C4B9A42D9
:1011900002D00C4B9A4204D1496825F080031943D0
:1011A000916080F83D40002180F83C10084670BDF9
:1011B000022070BD002C01400034014000040040BA
:1011C00000080040000C004010B5040003D094F863
:1011D0003D0010B107E0012010BD002084F83C0064
:1011E000204600F01FF8022084F83D00211D2068F1
:1011F00001F074F8012084F8460084F83E0084F879
:101200003F0084F8400084F8410084F8420084F8EC
:10121000430084F8440084F8450084F83D00002031
:1012200010BD000008B500680B49884212D10B4878
:10123000C16941F00401C161C069002200F00400ED
:10124000009011461E20FFF7BDFCBDE808401E209F
:10125000FFF7AABC08BD00000008004000100240D3
:1012600090F83D10012901D001207047022180F83B
:101270003D100168CA6842F00102CA6000680E4968
:1012800088420ED00D4988420BD0B0F1804F08D073
:101290000B49884205D00B49884202D00A4988424E
:1012A00004D1816801F00701062903D0016841F0EB
:1012B0000101016000207047002C01400034014012
:1012C0000004004000080040000C004070B50446D7
:1012D00090F83C00012817D0012584F83C500220EA
:1012E00084F83D002068826822F0770222F47F4271
:1012F00082600868502830D00DDC20284DD005DCF5
:1013000098B310283BD148E0022070BD302844D06B
:10131000402834D139E0602828D0702806D0B0F5B4
:10132000805F2CD0B0F5005F29D10AE0CB68D1E90D
:101330000121206801F025F82068816841F07701DB
:1013400009E0CB68D1E90121206801F01AF8206892
:10135000816841F48041816011E0CA684968206871
:1013600001F0E4F85021206807E016E0CA684968F7
:10137000206801F0ECF86021206801F00CF884F896
:101380003D50002084F83C0070BDCA684968206860
:1013900001F0CCF840212068EFE7226801461046B2
:1013A000EBE7704770B50446006801694FF000052F
:1013B000C943890715D4C168C943890711D4E91EF7
:1013C000016101202077206880698007204602D0D3
:1013D000FFF7E7FF04E000F0D1F8204600F074F9D1
:1013E000257720680169C943490717D4C168C943F3
:1013F000490713D46FF004010161022020772068AF
:10140000806910F4407F204602D0FFF7CAFF04E055
:1014100000F0B4F8204600F057F9257720680169FC
:10142000C943090716D4C168C943090712D46FF02C
:1014300008010161042020772068C06980072046E8
:1014400002D0FFF7AEFF04E000F098F8204600F06D
:101450003BF9257720680169C943C90617D4C168DB
:10146000C943C90613D46FF0100101610820207729
:101470002068C06910F4407F204602D0FFF791FF3A
:1014800004E000F07BF8204600F01EF92577206884
:101490000169C943C90708D1C168C943C90704D153
:1014A000891E0161204600F06BF920680169C9437B
:1014B000090609D4C168C943090605D46FF0800143
:1014C00001612046FFF740FE20680169C9434906D3
:1014D00009D4C168C943490605D46FF040010161D0
:1014E000204600F04EF920680169C94389060BD4F3
:1014F000C168C943890607D46FF020010161204605
:10150000BDE87040FFF721BE70BD000010B586B089
:1015100000210091019102910391006813498842D2
:1015200021D11348816941F004018161816901F091
:1015300004010491816941F00801816180690224FC
:1015400000F008000490C020CDE900046946094875
:101550000394FEF719FF0120CDE90004694606480F
:101560000394FEF711FF06B010BD00000004004018
:101570000010024000080140000C0140704770B5A7
:10158000044690F83C000D4601280AD0012084F85A
:101590003C0042B1042A18D0082A2AD00C2A4DD186
:1015A00039E0022070BD206800F0FEFE20688169ED
:1015B00041F0080181612068816921F004018161A5
:1015C000206881692A69114311E0206800F01CFF3E
:1015D0002068816941F4006181612068816921F49A
:1015E00080618161206881692A6941EA0221816103
:1015F00024E0206800F03EFF2068C16941F0080146
:10160000C1612068C16921F00401C1612068C1691C
:101610002A69114311E0206800F060FF2068C16969
:1016200041F40061C1612068C16921F48061C16138
:101630002068C1692A6941EA0221C161002084F859
:101640003C0070BD10B5040003D094F83D0010B10B
:1016500007E0012010BD002084F83C00204600F087
:101660001FF8022084F83D00211D206800F036FE9E
:10167000012084F8460084F83E0084F83F0084F896
:10168000400084F8410084F8420084F8430084F864
:10169000440084F8450084F83D00002010BD00009F
:1016A00008B500680649884208D10648C16941F07A
:1016B0000201C161C06900F00200009008BD000095
:1016C00000040040001002407047000010B50446BE
:1016D000022249B104290ED0082913D094F8410000
:1016E000012816D0012010BD94F83E000128F9D140
:1016F00084F83E200FE094F83F000128F2D184F8EE
:101700003F2008E094F840000128EBD184F8402005
:1017100001E084F841200122206800F025FE1349F1
:101720002068134A884201D0904203D1436C43F4AD
:1017300000434364206888420DD090420BD0B0F142
:10174000804F08D00B49884205D00B49884202D00F
:101750000A49884204D1816801F00701062903D0B3
:10176000016841F001010160002010BD002C014022
:10177000003401400004004000080040000C00401C
:101780007047704770B5040004D094F83D00002500
:1017900010B106E0012070BD84F83C50204600F0F6
:1017A00023F8242084F83D002068C16821F400510A
:1017B000C160204600F062FF2068016921F4904179
:1017C00001612068416921F02A0141612068C168F6
:1017D00041F40051C1602564202084F83D0084F864
:1017E0003E00002070BD000030B585B0002400949C
:1017F00001940294039400681449884224D1144847
:10180000816941F480418161816901F480410491E1
:10181000816941F00401816180690E4D00F004008E
:1018200004904FF400700090022001900320039078
:1018300069462846FEF7A8FD2815CDE9000469464B
:1018400028460294FEF7A0FD05B030BD00380140E7
:101850000010024000080140FEE700002DE9F05FA3
:101860000A2190FBF1F290FBF1F7002501FB120633
:10187000DFF8E4A005202C4681460AF1480B00BFA2
:1018800000F03DFC3C20FEF747FD4FF000080A2F1A
:101890000ED2DFE807F00D05081F2225272A2D307C
:1018A0001AF8050001E01BF805006D1C00F0C0FAF5
:1018B00008F1010000F0FF08B8F1180FE7D34FF06E
:1018C00000080A2E22D2DFE806F0191C3033363920
:1018D0003B3E4144204890300EE01F48D8300BE09A
:1018E0001E4809E01D48483006E01C48903003E0DF
:1018F0001A48D83000E01A48405DD6E71648483804
:1019000028E01AF80400641C00F092FA08F10100C3
:1019100000F0FF08B8F1180FD3D309F10100C0B2ED
:1019200081460828ACD3BDE8F09F1BF80400EAE725
:10193000094890300EE0094848380BE0074809E0B4
:101940000648483006E00548903003E0044848382F
:1019500000E00348005DD6E7AB2E0008CB2F00085F
:10196000EB30000801684A69D24352050FD46FF486
:1019700080624A61002140F8301F20224273817347
:10198000026942F0040202610173012070470020E5
:10199000704700002DE9F84F0446C06A1E46934682
:1019A0000D4621680A6842F480620A60082807D060
:1019B000012805D010F5803F02D0206B112804D1FA
:1019C0002068016841F4807101604FF001195B46A5
:1019D000002249462046009600F0C6F84FF40078F1
:1019E00040B120680068C00501D5C4F840800320DC
:1019F000BDE8F88F2069DFF884A0B0F5804F0FD0E4
:101A00000620216800EAD51747F0F0000861334648
:101A10005A460AF10601204600F0DAF858BB03E006
:101A2000E8B240F001001CE02168E8B208613346EA
:101A30005A465146204600F0CBF8E0B9206841698B
:101A400081690091016841F4807101605B46002268
:101A500049462046009600F087F80028C1D147F09B
:101A6000F1002168086133465A465146204600F08D
:101A7000AFF80028BCD00120BAE700000200010046
:101A8000F8B50446C06A1E460D461746082807D01A
:101A9000012805D010F5803F02D0206B122804D118
:101AA0002068016841F480710160134600224FF004
:101AB00001112046009600F057F840B120680068F8
:101AC000C00502D54FF4007020640320F8BD2069E2
:101AD000B0F5804F0ED00620216800EAD51040F006
:101AE000F000086133463A460B49204600F070F892
:101AF00078B902E005F0FE0000E0E8B22168086174
:101B0000054933463A46891F204600F061F800280F
:101B1000DCD00120F8BD00000800010070B51646B9
:101B20000D4604460DE02046FFF71CFF08B10120DA
:101B300070BD681C05D0FEF72DFD801BA84207D89C
:101B400035B120684069C0434007ECD4002070BD27
:101B5000002044F8300F20216173A073216941F007
:101B6000200121612073E2E72DE9F0471E469046EF
:101B70000D460446C1F30747DDF8209008E0701CCD
:101B800006D0FEF707FDA0EB0900B0420FD876B1F2
:101B90002068012F18D0806925EA00000004000C9D
:101BA00014D000214145EAD00020BDE8F087002094
:101BB00044F8300F20216173A073216941F02001A6
:101BC000216120730120F0E74069E5E70121E9E7A1
:101BD0002DE9F0479A4691460E46044600254FF0FF
:101BE0002008C1F3074725E020684069C04340054D
:101BF00014D42068016841F40071016021686FF419
:101C000080604861256384F83D8084F83E50206CF4
:101C100040F00400206484F83C501FE0B9F1FF3F1D
:101C200008D0FEF7B7FCA0EB0A0149450CD8B9F182
:101C3000000F09D02068012F13D0806926EA000028
:101C40000004000C0BD0CFE744F8305F84F80D801F
:101C5000A573206940F02000206125730120BDE8B4
:101C6000F0874069EAE72DE9F041002590460E46ED
:101C70000446202717E04069C043C0060CD454F83E
:101C8000301B6FF01000486144F810596777A57752
:101C9000206A2062257717E0FEF77CFCA0EB0800A5
:101CA000B04208D83EB120684169C9434906E2D430
:101CB0000020BDE8F08144F8305F6773A5732069A8
:101CC00040F02000206125730120F2E770B5164630
:101CD0000D4604460DE02046FFF744FE08B1012002
:101CE00070BD681C05D0FEF755FC801BA84207D8C4
:101CF00035B120684069C0430006ECD4002070BDB7
:101D0000002044F8300F20216173A073216941F055
:101D1000200121612073E2E72DE9F0411848194EB6
:101D2000041F0022206001213046FEF72EFC002215
:101D300004213046FEF729FC08211348FFF7C6FCB2
:101D400011484FF4FA750068C5636F003846FEF716
:101D500009FB012204213046FEF717FC3846FEF746
:101D600001FB00F03DF800F026F82846FEF7FAFAED
:101D700000F00CF82068BDE8F04100F0C7B90000A1
:101D800008000020001401407C04002070B50024ED
:101D9000204600F0B4F90020FEF7BEFA002500202E
:101DA00000F046F86D1CEDB2802DF8D3641CE4B24F
:101DB000082CEDD370BD70B50024204600F09FF9CB
:101DC0000020FEF7A9FA0025FF2000F031F86D1C75
:101DD000EDB2802DF8D3641CE4B2082CEDD370BDB5
:101DE00070B5054D0024285D00F008F8641CE4B2CD
:101DF0000D2CF8D370BD0000562E000870B50B4CAA
:101E00000546002208212046FEF7BFFB00221021D4
:101E10002046FEF7BAFB284600F0FCF92046BDE854
:101E2000704001221021FEF7B0BB000000140140F9
:101E300070B50B4C0546012208212046FEF7A5FB94
:101E4000002210212046FEF7A0FB284600F0E2F910
:101E50002046BDE8704001221021FEF796BB00002D
:101E6000001401402DE9F04786B000263A4800965C
:101E7000019602960396816941F0100181618169A2
:101E800001F010010491816941F0040181618169CF
:101E900001F004010491816941F0080181618169C7
:101EA00001F008010491816941F08001816181693B
:101EB00001F080010491816941F020018161806914
:101EC000DFF8988000F02000049001220E214046A7
:101ED000FEF75BFBDFF888904FF4F04700223946AD
:101EE0004846FEF752FBDFF87CA0002240F27F114B
:101EF0005046FEF74AFB01240E20CDE900040225DE
:101F000069464046CDE90245FEF73EFA0097CDE925
:101F10000145694648460395FEF736FA20028DE8EA
:101F20003100694650460395FEF72EFA4FF44060A3
:101F3000CDE90006694602945046FEF725FA7F2057
:101F40008DE851000320039069465046FEF71CFAC5
:101F500006B0BDE8F087000000100240001001400C
:101F6000001C0140001401400D4810B50B490160F0
:101F70000C49416000214FF480428160C0E90312A6
:101F800041618161C1610162FEF70AFB002803D053
:101F9000BDE81040FEF7CEB910BD0000005800406B
:101FA00028040020A086010010B58AB00024079400
:101FB0001C2168460894FEF74DF91E481C49016033
:101FC0004721C0E9011440F2E731C0E903148461FC
:101FD000FFF738FB08B1FEF7ADF9079407A91548DC
:101FE0000894FFF7B3F808B1FEF7A4F96020CDE933
:101FF00000040294002269460E480494FFF7BFFAD9
:1020000008B1FEF797F9042269460A48FFF7B7FAC4
:1020100008B1FEF78FF9082269460648FFF7AFFAC4
:1020200008B1FEF787F90348FFF770FA0AB010BD50
:10203000000400407C04002010B586B0002417483E
:10204000009401940294039404941349059401604C
:1020500041F61F41C0E9011442F20F71C0E90314B7
:102060008461FFF7B1F808B1FEF764F94FF48050CE
:10207000009069460948FFF729F908B1FEF75AF9B7
:10208000049404A905480594FFF760F8002801D0DE
:10209000FEF750F906B010BD00080040C40400204F
:1020A0000C4810B50A4901604FF4E131416000214C
:1020B00081600C22C160C0E904128161C161FFF737
:1020C00061FB002803D0BDE81040FEF733B910BD16
:1020D000003801400C050020FEE7000005484FF4E1
:1020E000807102680448462A01DA012200E00022D9
:1020F000FEF74BBA1404002000140140FEE700F084
:102100000700B030C0B2FFF779BE704770B5064621
:1021100000242046FFF7F3FF0020FEF7FDF800251E
:1021200016F8010BFFF784FE6D1CEDB2802DF7D37E
:10213000641CE4B2082CECD370BD0000FEB50C4664
:10214000050012D08CB101AF42F6064000F0AEFBA4
:1021500010F0FF0F6FF001060AD043F2A20000F06A
:10216000A5FB0120FEF7FEF80EE04FF0FF30FEBDAC
:102170004FF6FF70009006233A4689212048FEF76B
:10218000D3FA6FF0020708B13046FEBD0220401CB2
:102190000628FCDB022101A800F070FB9DF8061068
:1021A000814201D03846FEBD02210DF1070000F04A
:1021B00065FB9DF80910814202D06FF00300FEBD5F
:1021C000BDF80400BDF8071040BA4EBA00F0EEFCAE
:1021D0000C4F394600F00CFC0B4900F0FBFC0B499E
:1021E00000F0A4FB2860304600F0E0FC394600F027
:1021F000FFFB074900F0EEFC20600020FEBD000060
:102200002804002000FF7F4700002F43000034C255
:102210000000C84270B5114E05460024002201217D
:102220003046FEF7B2F9280601D4002200E0012270
:1022300002213046FEF7A9F96806050E0122114673
:102240003046FEF7A2F9641CE4B2082CE6D330460F
:10225000BDE8704000220121FEF797B9001401404B
:102260007047FEF749BC30B58FB028216846FDF7AE
:10227000F1FF14210AA8FDF7EDFF01210804CDE9C3
:1022800000100024029402250491CDE907504FF478
:10229000E01009906846FEF7B3FD08B172B6FEE79C
:1022A0000F20CDE90A054FF48060CDE90C400221F2
:1022B0000AA80E94FEF7B8FC002801D072B6FEE71B
:1022C0000FB030BD7047000010B500F035FABDE822
:1022D00010400148FFF766B8C4040020F0B502685A
:1022E0001C4B1D4D1D4E1E4F1E4C4FF0804C9842F6
:1022F00009D0A04207D0604505D0A84203D0B04223
:1023000001D0B84204D122F0700E4A6842EA0E02AF
:10231000984209D0A04207D0604505D0A84203D01A
:10232000B04201D0B84203D122F44075CA682A43B2
:102330004D6922F080022A4302608A68C2620A68FC
:102340008262984201D0A04201D109690163012152
:102350004161F0BD002C0140000400400008004035
:10236000000C00400034014010B501F01F030121B2
:10237000046A99408C430462016A9A4011430162E5
:1023800010BD10B5846842EA032224F47F440A4356
:102390002243826010BD826822F070020A4342F03C
:1023A0000701816070470000F0B5026A22F0010267
:1023B0000262036A42688469124E24F073050C6855
:1023C0002C4323F002058B682B430D4DA84201D00E
:1023D000B04205D123F00807CB683B4323F0040348
:1023E000A84201D0B04205D14D6922F44072154394
:1023F0008A692A4342608461496841630362F0BD8F
:10240000002C014000340140F0B5026A22F01002B5
:102410000262026A436884690D6824F4E64444EA6F
:1024200005248D6822F0200242EA05120F4D104E5D
:10243000A84201D0B04206D1CF6822F0800242EA21
:10244000071222F04002A84201D0B04207D14D69E4
:1024500023F4406343EA85038D6943EA85034360BF
:102460008461496881630262F0BD0000002C014074
:1024700000340140F0B5026A22F480720262026AFE
:102480004368C46922F4007224F073050C68124E8C
:102490002C438D6842EA05220E4DA84201D0B0427D
:1024A00006D1CF6822F4006242EA072222F4806259
:1024B000A84201D0B04207D14D6923F4405343EA0A
:1024C00005138D6943EA05134360C4614968C1631C
:1024D0000262F0BD002C01400034014030B5026AB8
:1024E00022F480520262046A4268C3690D6823F4D0
:1024F000E64343EA05238D6824F4005444EA053496
:10250000084DA84202D0084DA84204D14D6922F4DA
:10251000804242EA85124260C361496801640462F4
:1025200030BD0000002C01400034014010B5036AAA
:10253000046A24F001040462846924F0F00444EA8B
:10254000021423F00A020A438461026210BD10B52E
:10255000036A23F0100303628369046A23F470435F
:1025600043EA023224F0A00343EA011182610162CE
:1025700010BD00002DE9F05F00250A2190FBF1F26B
:1025800090FBF1F701FB1206DFF8E4A028462C4689
:1025900081460AF1480B00BFFFF7B1FD3C20FDF773
:1025A000BBFE4FF000080A2F0ED2DFE807F00D0542
:1025B000081F2225272A2D301AF8050001E01BF8F4
:1025C00005006D1CFFF734FC08F1010000F0FF0866
:1025D000B8F1180FE7D34FF000080A2E22D2DFE837
:1025E00006F0191C303336393B3E414420489030C8
:1025F0000EE01F48D8300BE01E4809E01D48483067
:1026000006E01C48903003E01A48D83000E01A4831
:10261000405DD6E71648483828E01AF80400641CE4
:10262000FFF706FC08F1010000F0FF08B8F1180FF1
:10263000D3D309F10100C0B281460328ACD3BDE871
:10264000F09F1BF80400EAE7094890300EE00948C3
:1026500048380BE0074809E00648483006E00548DE
:10266000903003E00448483800E00348005DD6E7B6
:10267000AB2E0008CB2F0008EB30000870B50446E5
:1026800000680169E26821F4405111430161216948
:10269000A0680843616908432168CA6841F20C6375
:1026A0009A430243CA6020684169A26921F44071DB
:1026B000114341611E492068884202D1FEF75AFB4E
:1026C00001E0FEF747FB00EBC00101EB0012606880
:1026D00064218000B2FBF0F3B3FBF1F36FF0180656
:1026E0007343B2FBF0F5B2FBF0F605EB8305322342
:1026F00003EB0515B5FBF1F5B6FBF1F605F0F005BA
:1027000005EB0615B2FBF0F6B2FBF0F0B0FBF1F012
:102710006FF01802504306EB800003EB0010B0FB93
:10272000F1F0216800F00F002844886070BD0000BF
:1027300000380140FEE7000070B54FF480610E489C
:10274000FDF71EFF01000D480D4C4FF0000502D0B3
:10275000012202210CE0002202210646FDF715FFAE
:102760002168491C2160052905D10122022130463A
:10277000FDF70BFF256070BD001401400010014003
:10278000000000200907090E002804DB00F1E0200A
:1027900080F80014704700F00F0000F1E02080F88E
:1027A000141D7047FEF7B0F9FFF75DFDFFF75AFB08
:1027B000FFF7DAFBFFF7F8FBFFF772FCFFF73CFCD3
:1027C0001348FEF74DFD00211248FEF77FFF04215C
:1027D0001048FEF77BFFFFF79FFA0F4C0E49091DCB
:1027E000081FFFF7ABFC206800F0C4F90546A060A5
:1027F000606800F0BFF9E0602846FFF7BBFEE068C4
:10280000FFF72CF8FFF76AFCFDF796FDE6E70000FE
:10281000C40400207C0400200804002010B5094CEA
:1028200000224FF400512046FDF7AFFE0122910334
:102830002046FDF7AAFE04494FF47A7009688863C0
:1028400010BD0000001C01407C04002010B5094CA4
:1028500000224FF400512046FDF797FE00224FF46E
:1028600080412046FDF791FE0349002009688863F6
:1028700010BD0000001C01407C04002070B504461F
:10288000FF20002331250EE014F8012B50400022D8
:10289000060602D585EA400000E04000521CC0B2A6
:1028A000082AF5DB5B1C8B42EEDB70BD1CB5010A10
:1028B0008DF804108DF805004FF6FF70009002238C
:1028C00001AA88210148FEF751F81CBD2804002008
:1028D00010B5094C00224FF400612046FDF755FE6B
:1028E000012211032046FDF750FE04494FF42F70DA
:1028F0000968486310BD0000001C01407C040020F2
:1029000010B5084C0122D1022046FDF73EFE0122FF
:1029100011032046FDF739FE03490020096848638A
:1029200010BD0000001C01407C04002090EA010F53
:1029300048BF81F0004100F12082421A3CBF801A5A
:1029400089184FEAD0524FF07F4C1CEA410FA2EB9E
:10295000D15318BF9CEA026F00F03B804FF0004C4F
:102960004CEA00204CEA012121FA03FC10EB0C0C8C
:102970001ED202F1FF325FEA1C2040EBC25038BF8A
:1029800070471CF07F0F4FEA400C18BFBCF17F4F1F
:1029900038BF7047C3F12003994008BF20F0010001
:1029A000BCF17F4F38BF7047A0F1C04000F0D9B9EB
:1029B0004FEA3C00000A40EBC25028BF1CF0FF0F5A
:1029C0004FEA400CE6D018BFBCF17F4F38BF7047CC
:1029D000EAE79CEA026F05D010EA5C0F08BF00F03E
:1029E0000040704710B500F076F900BF64FBBE3EB2
:1029F0004FF47F0C1CEAD0121EBF1CEAD11392EADE
:102A00000C0F93EA0C0F00F0858090EA010F48BF8D
:102A100042F4807240F4000C41F400002CF07F413D
:102A200020F07F4000B58142A2EB03020FF2081CA8
:102A3000ACEB504EC0F100009EF800E04FEA4E0EA5
:102A400000FB0EFC38BF49004FEA2C1C02F5FA02CD
:102A50000CFB0EF34FEACE1E4FEA112C4FEAC121B8
:102A60000EEB635E42EB22420EFB0CFC4FEA1C5362
:102A700000FB03114FEA112C4FEA01310EFB0CFC55
:102A80004FEADC4C00FB0C11C14228BF09184CEB8B
:102A900003335DF804EB10EB410143EBC250B2F598
:102AA0007C0F38BF704729D512F0F00F1CBF00F122
:102AB000C04000F000407047008182838485868793
:102AC00088898B8C8D8E8F919293959697999A9CED
:102AD0009D9FA0A2A3A5A7A8AAACAEB0B2B3B5B75C
:102AE000B9BCBEC0C2C5C7C9CCCED1D4D7D9DCDF32
:102AF000E2E6E9ECF0F3F7FAFE0000004FEA400CE2
:102B00000CF1807CBCF17E4F28BF7047B0F1C04013
:102B100000F027B990EA010F0CEAD11348BF42F444
:102B20008072624538BF634507D213F47F0F16D019
:102B300080EA010000F00040704710B500F0CBF8CB
:102B4000097EFC3E00F005B880EA010000F000407C
:102B5000704780EA010000F0004000F002B912F472
:102B60007F0F04BF0248704780EA010000F0F9B807
:102B70000000C07F41000B0ED3F19E0208D950F433
:102B800000034FEA032323FA02F048BF4042704794
:102B900010B500F0A0F800BF4992248000207047D3
:102BA0006FF0004282EA200070470000B0FA80F324
:102BB00010FA03F2C3F19D030AD0D90501EB1220EC
:102BC000530638BF704700F1010008BF20F0010034
:102BD000704700004FF47F0C1CEAD0121EBF1CEAA5
:102BE000D11392EA0C0F93EA0C0F00F0478090EAA1
:102BF000010F48BF42F480724FF0004C4CEA0020B5
:102C00004CEA012102EB0302A0FB0113A2F5000232
:102C1000002918BF43F001035B0028BF4FEA3303CC
:102C200042EB22425FEA132C4CEBC2502EBFBCEBAE
:102C3000436FB2F57C0F70474FEA036CBCF1004F55
:102C400008BF20F00100B2F57C0F38BF70470BD5EC
:102C500082F0FF0212F5803FC8BF704700F1C0400C
:102C6000D8BF00F00040704700F5000C5FEA4C0C44
:102C700048BF7047B0F1C04000F073B890EA010F50
:102C80000CEAD11348BF42F48072624538BF6345F5
:102C900004D280EA010000F00040704710B500F057
:102CA0001AF800BF8900013E00F007B800F009B82B
:102CB0005FEA410C5FEA1C6C08D080EA010000F07A
:102CC00050B85FEA400C5FEA1C6CF6D14FF0004050
:102CD000A0F5800070470EF1020E2EF0030E5EF894
:102CE000044B244204D44FEA4102B2F17F4F11D881
:102CF0004FEA4003B3F17F4F0CD80ED14FEAD07C9E
:102D0000B2F17F4F0CEB4C0C0CF1020C08BF4CEBFA
:102D1000D17C04E04FF0080C01E04FEAD17C0CEBD1
:102D20004C0324FA03F404F00704B4F1040C06D2B3
:102D30000EEB840CBDE810404CF0010C6047DFE85E
:102D40000CF0070802024FF00040A0F5800010BD13
:102D50000846420018BFD2F1807288BF00F00040E0
:102D600010BDFF2141EAD050C005704790EA010F25
:102D700048BF81F000413FF5E0AD421A04D882F02F
:102D80000042A0EB020011444FEAD0524FF07F4CBA
:102D90001CEA410FA2EBD15318BF9CEA026F4AD044
:102DA0004FF0004C4CEA00204CEA012121FA03FCD0
:102DB000B0EB0C0C0FD412F0FE0F36D05FEA4C00D3
:102DC0001DD5001240EBC25038BF70471CF03F0FBA
:102DD00018BF70470BE0A2F101025FEA1C2040EB34
:102DE000C25038BF70471CF07F0F18BF7047C3F147
:102DF0002003994014BF401E20F001007047800856
:102E00004FEA122308BF7047B0FA80FCA2EB0C0215
:102E1000CCF1280C60FA0CF093EA122F04BF00EBFF
:102E2000C25070474FEAC3707047130A5FEADC1064
:102E300008BF7047F6E79CEA026F04D010EA5C0F07
:102E400008BF0020704710B5FFF745FF40DFF63E92
:102E500081F000407047E22C2E2F248122A2A0C8CE
:102E6000A640AF0000C0E0E06060E0E0C00000000D
:102E7000000000000000000000000078FFFFFF00DD
:102E8000000000FFFFFF0000000000000000000045
:102E900000000000030F1F1C18181C1F0F03000068
:102EA00000000000000000000000000000C0C0C0E2
:102EB000E0E0E00000000000000000000000000072
:102EC0000000000000000000FFFFFF000000000005
:102ED00000000000000000000000000000101018BA
:102EE0001F1F1F1010000000000000000000000065
:102EF0000000000080C0E060206060E0C080000052
:102F00000000000000000000000000000307078030
:102F1000C0E0783F1F070000000000000000000034
:102F2000000000101C1E1F1B191818181E1E000080
:102F300000000000000000000000000080C0E06011
:102F40002060E0E0C0000000000000000000000081
:102F5000000000000103031010383FFFE7C300002A
:102F60000000000000000000000000000E1F1F18FD
:102F70001018181F0F0700000000000000000000DC
:102F8000000000000000000080C0E0E00000000041
:102F90000000000000000000000000C0E0F0BC8E57
:102FA00087FFFFFF8080800000000000000000001D
:102FB0000000000000000010101F1F1F181010005C
:102FC00000000000000000000000000000E0E060E1
:102FD00060606060606000000000000000000000B1
:102FE00000000000183F3F18080818F8F0E0000043
:102FF0000000000000000000000000000F1F1F186C
:103000001018181F0F07000000000000000000004B
:10301000000000000080C0E06020E0E0E0C00000B0
:103020000000000000000000000000F8FFFFFF1893
:10303000180818F9F9F00000000000000000000076
:1030400000000000070F1F1C1810181F0F070000BA
:10305000000000000000000000000000E0E06060F0
:10306000606060E0E0600000000000000000000020
:1030700000000000010100C0F0FC3F07010000005B
:1030800000000000000000000000000000000C1F15
:103090001F1F0000000000000000000000000000F2
:1030A0000000000080E0E060202060E0C0800000C0
:1030B000000000000000000000000000C7EF7F3C9F
:1030C000383078FFEFC7000000000000000000006B
:1030D000000000030F1F1C181010181F0F0700001E
:1030E00000000000000000000000000080E0E06040
:1030F000206060E0C08000000000000000000000D0
:103100000000000E3F7F7960406070FFFFFF00000D
:103110000000000000000000000000000C1E1E1C4B
:1031200010181E0F07010000000000000000000042
:10313000000000000000000000000001020304067F
:103140000708090000000001020304006C310008B8
:1031500000000020280400006C01000880320008F4
:103160002804002088070000D00100086200013018
:103170000C80800C1C3CD8E0F8FCF848015004FCA2
:10318000FCFC1A00164FF8F8F0101010F0F2D61EE2
:103190001C18F0F0D0509898181000013016010754
:1031A00087E6FC3FF3EFEF2FE4E42424E4E42FEF81
:1031B000FFE020802014FFFF3F014141DFDF5F4936
:1031C00049495FDFFFE1410101B112700101497F0F
:1031D000100B013B7F7F27603F3F3F2003210411FD
:1031E0000B001B4F30300040703F4F434040602089
:1031F00030311F1E1C1E3F33317070606020800212
:103200007D8001027D0101680A8080840C3C389039
:10321000C0488008065648F8FCFC08802007E0F00B
:1032200030F0F0E0077580180B8183C7F7FE3FE3AD
:10323000C89F0FFA1204040806558FCFFF706080F4
:10324000200A0F1F181FFFFFFFF771865D0003297B
:103250007B48066020232727840807573F23213017
:1032600030208010041C1F07860C05151C1F1F0F23
:1032700010031124756600040024F400000000000F
:0400000508000131BD
:00000001FF
